:020000040800F2
:10000000080400209D010008A5010008A7010008C0
:10001000A9010008AB010008AD01000800000000C4
:10002000000000000000000000000000AF01000818
:10003000B101000800000000B3010008B50100088C
:10004000B7010008B7010008B7010008B7010008B0
:10005000B7010008B7010008B7010008B7010008A0
:10006000B7010008B7010008B7010008B701000890
:10007000B7010008B7010008B7010008B701000880
:10008000B7010008B7010008B7010008B701000870
:10009000B7010008B7010008B7010008B701000860
:1000A000B7010008B7010008B7010008B701000850
:1000B000B7010008B7010008B7010008B701000840
:1000C000B7010008B7010008B7010008B701000830
:1000D000B7010008B7010008B7010008B701000820
:1000E000B7010008B7010008B7010008B701000810
:1000F000B7010008B7010008B7010008B701000800
:10010000B7010008B7010008B7010008B7010008EF
:10011000B7010008B7010008B7010008B7010008DF
:10012000B7010008B7010008B7010008B7010008CF
:10013000B7010008B7010008B7010008B7010008BF
:10014000B7010008B7010008B7010008B7010008AF
:10015000B7010008B7010008B7010008B70100089F
:10016000B7010008B7010008B7010008B70100088F
:10017000B7010008B7010008B7010008B70100087F
:10018000B7010008B7010008DFF80CD000F018F83C
:100190000048004751050008080400200648804731
:1001A00006480047FEE7FEE7FEE7FEE7FEE7FEE75C
:1001B000FEE7FEE7FEE7FEE7E1040008890100082C
:1001C000064C074D06E0E06840F0010394E80700A4
:1001D00098471034AC42F6D3FFF7DAFF84060008E4
:1001E000A4060008F0B50023012403270D6804FAD3
:1001F00003F21540954242D1D0F800C05E0007FAE4
:1002000006F52CEA050CC0F800C091F804C0D0F83F
:1002100000E00CFA06FC4CEA0E0CC0F800C091F8A5
:1002200004C0BCF1010F02D0BCF1020F1FD1D0F805
:1002300008C02CEA050CC0F808C091F805C0D0F839
:1002400008E00CFA06FC4CEA0E0CC0F808C0D0F826
:1002500004C02CEA020CC0F804C0426891F806C041
:100260000CFA03FC1FFA8CFC42EA0C024260C268E2
:10027000AA43C260CA79C568B2402A43C2605B1C07
:10028000102BB3D3F0BD4B07DB0E9A40C90810B555
:1002900000EB8100016A0F249C40A1430162016AC6
:1002A0001143016210BD4183704701837047000014
:1002B000044A0029116801D0014300E08143116024
:1002C0007047000030380240044A0029116801D00C
:1002D000014300E081431160704700004438024050
:1002E0000029018802D041F0400101E021F04001E5
:1002F000018070470246002012890A4200D0012086
:100300007047808970478181704730B502884C887A
:1003100002F441530A88CD8822438C882C4322431F
:100320000C8922434C8922438C892243CC89224365
:100330001A430280828B22F400628283098A01823E
:1003400030BD000070B51A4D044608212846FFF75D
:10035000AAFF44F08006174C02212046FFF7CAFF8F
:100360000028F9D031462046FFF7CDFF0121204675
:10037000FFF7C0FF0028F9D02046FFF7C2FF022197
:100380002046FFF7B7FF0028F9D000212046FFF7ED
:10039000BAFF01212046FFF7ADFF0028F9D0082160
:1003A0002846FFF782FF2046FFF7ABFFC0B270BDC3
:1003B00000100240003001402DE9F041194D0E4679
:1003C000074608212846FFF76EFF174C02212046FA
:1003D000FFF790FF0028F9D039462046FFF793FF3A
:1003E00001212046FFF786FF0028F9D02046FFF7BD
:1003F00088FF02212046FFF77DFF0028F9D0314613
:100400002046FFF780FF01212046FFF773FF0028F9
:10041000F9D02046FFF775FF2846BDE8F0410821D6
:10042000FFF743BF00100240003001400CB5002030
:100430002749019000900A6842F480320A604FF424
:10044000A0430A6802F400320092019A521C019201
:10045000009A12B9019A9A42F3D10A68920334D5EC
:10046000012000901A484030026842F08052026039
:100470001848026842F44042026015480830026899
:100480000260026842F400420260026842F4A05234
:100490000260031F104A1A600A6842F080720A6004
:1004A0000A689201FCD50D4A40F2056111600168AD
:1004B00021F003010160016841F00201016001685F
:1004C000C1F381010229FAD10CBD00900CBD0000DE
:1004D000003802400070004008544007003C0240D1
:1004E0000F4810B5016841F0010101600C4A00217C
:1004F0000832116002680B4B1A400260031D0A4A61
:100500001A60026822F48022026005480C30016003
:10051000FFF78CFF05494FF00060086010BD000038
:1005200000380240FFFFF6FE1030002408ED00E026
:1005300002E008C8121F08C1002AFAD170477047AC
:10054000002001E001C1121F002AFBD1704700000A
:1005500088B001211920FFF7ABFE4FF4805801212C
:100560004046FFF7B1FEE0200227DFF8049100903B
:100570008DF8047000248DF8064069464846FFF760
:1005800031FE08200126DFF8ECA000908DF8046011
:100590008DF8064069465046FFF724FE4FF4704040
:1005A00000908DF8046003208DF80500324D8DF821
:1005B00006408DF8074069462846FFF713FE0522DE
:1005C00011464846FFF75FFE052206214846FFF721
:1005D0005AFE052207214846FFF755FE2820ADF8B0
:1005E0001400ADF808404FF48270ADF80A00ADF881
:1005F0000C40ADF81640ADF810604FF440701F4C41
:10060000ADF81200ADF80E7002A92046FFF77DFE8E
:1006100008215046FFF749FE01212046FFF760FE02
:1006200067212020FFF7C8FEF1032846FFF73DFEB3
:100630004646134C6FF013074FF480482920FFF70C
:1006400081FE40B22070B8423146284602DAFFF7F8
:100650002CFE01E0FFF727FE94F900004146142824
:10066000284602DDFFF721FEE8E7FFF71CFEE5E77D
:100670000000024000100240000C02400030014027
:1006800000000020A4060008000000200400000074
:1006900030050008A806000804000020040400003B
:0806A000400500080000000005
:040000050800018965
:00000001FF
