:020000040800F2
:10000000280400209D010008A5010008A7010008A0
:10001000A9010008AB010008AD01000800000000C4
:10002000000000000000000000000000AF01000818
:10003000B101000800000000B301000875060008C7
:10004000B7010008B7010008B7010008B7010008B0
:10005000B7010008B7010008B7010008B7010008A0
:10006000B7010008B7010008B7010008B701000890
:10007000B7010008B7010008B7010008B701000880
:10008000B7010008B7010008B7010008B701000870
:10009000B7010008B7010008B7010008B701000860
:1000A000B7010008B7010008B7010008B701000850
:1000B000B7010008B7010008B7010008B701000840
:1000C000B7010008B7010008B7010008B701000830
:1000D000A5030008B7010008B7010008B701000830
:1000E000B7010008B7010008B7010008B701000810
:1000F000B7010008B7010008B7010008B701000800
:10010000B7010008B7010008B7010008B7010008EF
:10011000B7010008B7010008B7010008B7010008DF
:10012000B7010008B7010008B7010008B7010008CF
:10013000B7010008B7010008B7010008B7010008BF
:10014000B7010008B7010008B7010008B7010008AF
:10015000B7010008B7010008B7010008B70100089F
:10016000B7010008B7010008B7010008B70100088F
:10017000B7010008B7010008B7010008B70100087F
:10018000B7010008B7010008DFF80CD000F018F83C
:1001900000480047F9060008280400200648804768
:1001A00006480047FEE7FEE7FEE7FEE7FEE7FEE75C
:1001B000FEE7FEE7FEE7FEE7890600088901000882
:1001C000064C074D06E0E06840F0010394E80700A4
:1001D00098471034AC42F6D3FFF7DAFF88070008DF
:1001E000A807000801B50098411E0091FBD208BD88
:1001F0001CB50121082000F0B1F84FF470400090C8
:1002000001208DF8040003208DF8050000208DF8F2
:1002100006008DF807006946014800F003F81CBD90
:10022000000C0240F0B50023012403270D6804FAF6
:1002300003F21540954242D1D0F800C05E0007FAA3
:1002400006F52CEA050CC0F800C091F804C0D0F8FF
:1002500000E00CFA06FC4CEA0E0CC0F800C091F865
:1002600004C0BCF1010F02D0BCF1020F1FD1D0F8C5
:1002700008C02CEA050CC0F808C091F805C0D0F8F9
:1002800008E00CFA06FC4CEA0E0CC0F808C0D0F8E6
:1002900004C02CEA020CC0F804C0426891F806C001
:1002A0000CFA03FC1FFA8CFC42EA0C024260C268A2
:1002B000AA43C260CA79C568B2402A43C2605B1CC7
:1002C000102BB3D3F0BD4B07DB0E9A40C90810B515
:1002D00000EB8100016A0F249C40A1430162016A86
:1002E0001143016210BD4183704701837047426929
:1002F0004A4042617047000030B50F22C47801784F
:100300000123FCB1144C246801F1E02104F4E06401
:10031000C4F5E064C4F30724C4F10405E240447862
:10032000AC408578154025432A0181F800240078E7
:1003300000F01F018B404009800000F1E020C0F870
:10034000003130BD01F01F0083404809800000F1FA
:10035000E020C0F8803130BD0CED00E0044A0029F7
:10036000116801D0014300E0814311607047000033
:1003700030380240044A0029116801D0014300E0EE
:10038000814311607047000040380240044A002950
:10039000116801D0014300E0814311607047000003
:1003A0004438024010B5064C6021204600F0C7F8E2
:1003B000002804D0204600F0E3F80249487010BD40
:1003C00000380040040000200029018802D041F0DC
:1003D000400101E021F04001018070472DE9F05F0C
:1003E00001210846FFF7BAFF01210803FFF7CEFFFE
:1003F000494E10200127306037710025B5714FF04C
:100400000308464C86F80580F57131462046FFF713
:1004100009FFE02030604FF0020A86F804A086F859
:10042000058031462046FFF7FDFE05221146204695
:10043000FFF749FF052206212046FFF744FF05226A
:1004400007212046FFF73FFF354C4FF48270DFF85D
:10045000D4B025806080A580E58027817802608106
:100460003820A081E5814FF00709A4F810902146BB
:10047000584600F089F801210220FFF76FFF0121A3
:100480008803FFF777FF4FF47040306086F804A0D0
:1004900086F805803146244E3046FFF7C3FE05221C
:1004A0000C213046FFF70FFF05220D213046FFF7E4
:1004B0000AFF05220E213046FFF705FF05220F2116
:1004C0003046FFF700FF25806580A580E580278105
:1004D0006581A581E581A4F810902146134C204642
:1004E00000F052F80C492420891F08704D708F705D
:1004F000CF700846FFF700FF01226021204600F080
:1005000033F801212046FFF75FFF5846BDE8F05F52
:100510000121FFF759BF00000C000020000002403D
:100520001400002000300140000402400038004068
:100530000246002012890A4200D00120704710B5FF
:1005400001F00F040122034602FA04F40020090915
:100550008A4091B29A88A4B20A401989214202D0F5
:10056000002A00D0012010BD090901238B40002A78
:10057000828899B201D00A4300E08A4382807047A2
:10058000808970478181704730B502884C8802F4B9
:1005900041530A88CD8822438C882C4322430C89FE
:1005A00022434C8922438C892243CC8922431A431B
:1005B0000280828B22F400628283098A018230BD2C
:1005C0000CB500202749019000900A6842F480325F
:1005D0000A604FF4A0430A6802F400320092019AC4
:1005E000521C0192009A12B9019A9A42F3D10A68F8
:1005F000920334D5012000901A484030026842F03E
:10060000805202601848026842F440420260154875
:10061000083002680260026842F400420260026828
:1006200042F4A0520260031F104A1A600A6842F0A6
:1006300080720A600A689201FCD50D4A40F2056199
:100640001160016821F003010160016841F00201BD
:1006500001600168C1F381010229FAD10CBD00904B
:100660000CBD0000003802400070004008544007F4
:10067000003C024003480168002902D00168491E7D
:1006800001607047000000200F4810B5016841F07C
:10069000010101600C4A00210832116002680B4B15
:1006A0001A400260031D0A4A1A60026822F480227E
:1006B000026005480C300160FFF782FF05494FF0EA
:1006C0000060086010BD000000380240FFFFF6FE29
:1006D0001030002408ED00E002E008C8121F08C135
:1006E000002AFAD170477047002001E001C1121FB3
:1006F000002AFBD170470000FFF77AFDFFF76EFE7E
:100700001C4DDFF874801D4C1D4E1E4F4FF40059D8
:100710004FF4804A4FF47A7B06212846FFF732FFD8
:1007200002212846FFF704FF0028F9D12046FFF7F1
:1007300027FF88F8000049463046FFF7D8FD102112
:100740003846FFF7D2FD07212046FFF71BFF0221A5
:100750002046FFF7EDFE0028F9D151463046FFF75D
:10076000C6FD10213846FFF7BEFD5846FFF73AFD9B
:10077000D2E70000003800400400002000300140B3
:10078000000C024000000240A80700080000002002
:1007900014000000D8060008BC0700081400002060
:1007A00014040000E806000800000000000000003B
:0C07B0000000000000000000000000003D
:040000050800018965
:00000001FF
